{
  "contractName": "MessageStore",
  "abi": [
    {
      "constant": true,
      "inputs": [
        {
          "name": "",
          "type": "uint256"
        }
      ],
      "name": "msgDates",
      "outputs": [
        {
          "name": "",
          "type": "uint256"
        }
      ],
      "payable": false,
      "stateMutability": "view",
      "type": "function"
    },
    {
      "constant": true,
      "inputs": [
        {
          "name": "",
          "type": "uint256"
        }
      ],
      "name": "postBox",
      "outputs": [
        {
          "name": "",
          "type": "bytes32"
        }
      ],
      "payable": false,
      "stateMutability": "view",
      "type": "function"
    },
    {
      "constant": true,
      "inputs": [
        {
          "name": "",
          "type": "uint256"
        }
      ],
      "name": "recipients",
      "outputs": [
        {
          "name": "",
          "type": "address"
        }
      ],
      "payable": false,
      "stateMutability": "view",
      "type": "function"
    },
    {
      "constant": false,
      "inputs": [
        {
          "name": "mail",
          "type": "bytes32"
        },
        {
          "name": "date",
          "type": "uint256"
        },
        {
          "name": "recipient",
          "type": "address"
        }
      ],
      "name": "storeMsg",
      "outputs": [
        {
          "name": "",
          "type": "bool"
        }
      ],
      "payable": false,
      "stateMutability": "nonpayable",
      "type": "function"
    },
    {
      "constant": true,
      "inputs": [],
      "name": "getAvailableMsgDates",
      "outputs": [
        {
          "name": "",
          "type": "uint256[]"
        }
      ],
      "payable": false,
      "stateMutability": "view",
      "type": "function"
    },
    {
      "constant": true,
      "inputs": [],
      "name": "test",
      "outputs": [
        {
          "name": "",
          "type": "bytes32"
        }
      ],
      "payable": false,
      "stateMutability": "view",
      "type": "function"
    },
    {
      "constant": true,
      "inputs": [
        {
          "name": "date",
          "type": "uint256"
        }
      ],
      "name": "getRecipient",
      "outputs": [
        {
          "name": "",
          "type": "address"
        }
      ],
      "payable": false,
      "stateMutability": "view",
      "type": "function"
    },
    {
      "constant": true,
      "inputs": [
        {
          "name": "date",
          "type": "uint256"
        }
      ],
      "name": "getMsg",
      "outputs": [
        {
          "name": "",
          "type": "bytes32"
        }
      ],
      "payable": false,
      "stateMutability": "view",
      "type": "function"
    }
  ],
  "bytecode": "0x6060604052341561000f57600080fd5b6105268061001e6000396000f30060606040526004361061008e576000357c0100000000000000000000000000000000000000000000000000000000900463ffffffff1680632b82735b146100935780636d0cee75146100d2578063994138fc14610135578063bfc24dcf1461019c578063ccd8e7c3146101d3578063d1bc76a114610212578063ee6a0ba114610275578063f8a8fd6d146102df575b600080fd5b341561009e57600080fd5b6100b46004808035906020019091905050610310565b60405180826000191660001916815260200191505060405180910390f35b34156100dd57600080fd5b6100f3600480803590602001909190505061033b565b604051808273ffffffffffffffffffffffffffffffffffffffff1673ffffffffffffffffffffffffffffffffffffffff16815260200191505060405180910390f35b341561014057600080fd5b61018260048080356000191690602001909190803590602001909190803573ffffffffffffffffffffffffffffffffffffffff16906020019091905050610377565b604051808215151515815260200191505060405180910390f35b34156101a757600080fd5b6101bd60048080359060200190919050506103f1565b6040518082815260200191505060405180910390f35b34156101de57600080fd5b6101f46004808035906020019091905050610415565b60405180826000191660001916815260200191505060405180910390f35b341561021d57600080fd5b610233600480803590602001909190505061042d565b604051808273ffffffffffffffffffffffffffffffffffffffff1673ffffffffffffffffffffffffffffffffffffffff16815260200191505060405180910390f35b341561028057600080fd5b610288610460565b6040518080602001828103825283818151815260200191508051906020019060200280838360005b838110156102cb5780820151818401526020810190506102b0565b505050509050019250505060405180910390f35b34156102ea57600080fd5b6102f26104be565b60405180826000191660001916815260200191505060405180910390f35b6000428210151561032057600080fd5b60016000838152602001908152602001600020549050919050565b600080600083815260200190815260200160002060009054906101000a900473ffffffffffffffffffffffffffffffffffffffff169050919050565b60008160008085815260200190815260200160002060006101000a81548173ffffffffffffffffffffffffffffffffffffffff021916908373ffffffffffffffffffffffffffffffffffffffff16021790555083600160008581526020019081526020016000208160001916905550600190509392505050565b60028181548110151561040057fe5b90600052602060002090016000915090505481565b60016020528060005260406000206000915090505481565b60006020528060005260406000206000915054906101000a900473ffffffffffffffffffffffffffffffffffffffff1681565b6104686104e6565b60028054806020026020016040519081016040528092919081815260200182805480156104b457602002820191906000526020600020905b8154815260200190600101908083116104a0575b5050505050905090565b60007f7375700000000000000000000000000000000000000000000000000000000000905090565b6020604051908101604052806000815250905600a165627a7a723058206dc88de6a92a5e811067ade8a753611f036e82fde3fe0ea0c9f41612beb61aa90029",
  "source": "pragma solidity ^0.4.17;\n\ncontract MessageStore {\n\n    mapping(uint => address) public recipients;\n    mapping(uint => bytes32) public postBox;\n    uint[] public msgDates;\n\n    //allows storage of messages\n    function storeMsg(bytes32 mail, uint date, address recipient) public returns(bool) {\n        //possibly adjust in the future to \n        recipients[date] = recipient;\n        postBox[date] = mail;\n        return true;\n    }\n\n    function getAvailableMsgDates() public view returns (uint[]) {\n        return msgDates;\n    }\n    function test() public view returns (bytes32) {\n        return \"sup\";\n    }\n\n    function getRecipient(uint date) public view returns (address) {\n        return recipients[date];\n    }\n\n    function getMsg(uint date) public view returns (bytes32) {\n        require(date < block.timestamp);\n        return postBox[date];\n    }\n}",
  "sourcePath": "/Users/zhen/Code/theMsg/contracts/MessageStore.sol",
  "compiler": {
    "name": "solc",
    "version": "0.4.19+commit.c4cbbb05.Emscripten.clang"
  },
  "schemaVersion": "2.0.0",
  "updatedAt": "2018-04-03T01:11:06.184Z"
}