{
  "contractName": "MessageStore",
  "abi": [
    {
      "constant": true,
      "inputs": [
        {
          "name": "",
          "type": "uint256"
        }
      ],
      "name": "postBox",
      "outputs": [
        {
          "name": "",
          "type": "string"
        }
      ],
      "payable": false,
      "stateMutability": "view",
      "type": "function"
    },
    {
      "constant": true,
      "inputs": [
        {
          "name": "",
          "type": "uint256"
        }
      ],
      "name": "recipients",
      "outputs": [
        {
          "name": "",
          "type": "address"
        }
      ],
      "payable": false,
      "stateMutability": "view",
      "type": "function"
    },
    {
      "constant": false,
      "inputs": [
        {
          "name": "mail",
          "type": "string"
        },
        {
          "name": "date",
          "type": "uint256"
        },
        {
          "name": "recipeient",
          "type": "address"
        }
      ],
      "name": "storeMsg",
      "outputs": [
        {
          "name": "",
          "type": "bool"
        }
      ],
      "payable": false,
      "stateMutability": "nonpayable",
      "type": "function"
    },
    {
      "constant": true,
      "inputs": [],
      "name": "getRecipients",
      "outputs": [
        {
          "name": "",
          "type": "address[]"
        }
      ],
      "payable": false,
      "stateMutability": "view",
      "type": "function"
    },
    {
      "constant": true,
      "inputs": [
        {
          "name": "date",
          "type": "uint256"
        }
      ],
      "name": "getRecipient",
      "outputs": [
        {
          "name": "",
          "type": "address"
        }
      ],
      "payable": false,
      "stateMutability": "view",
      "type": "function"
    },
    {
      "constant": true,
      "inputs": [
        {
          "name": "date",
          "type": "uint256"
        }
      ],
      "name": "getMsg",
      "outputs": [
        {
          "name": "",
          "type": "string"
        }
      ],
      "payable": false,
      "stateMutability": "view",
      "type": "function"
    }
  ],
  "bytecode": "0x6060604052341561000f57600080fd5b6107ae8061001e6000396000f300606060405260043610610078576000357c0100000000000000000000000000000000000000000000000000000000900463ffffffff1680631ad748341461007d5780632b82735b1461011a5780636d0cee75146101b6578063ccd8e7c314610219578063d1bc76a1146102b5578063d78d610b14610318575b600080fd5b341561008857600080fd5b610100600480803590602001908201803590602001908080601f0160208091040260200160405190810160405280939291908181526020018383808284378201915050505050509190803590602001909190803573ffffffffffffffffffffffffffffffffffffffff16906020019091905050610382565b604051808215151515815260200191505060405180910390f35b341561012557600080fd5b61013b6004808035906020019091905050610413565b6040518080602001828103825283818151815260200191508051906020019080838360005b8381101561017b578082015181840152602081019050610160565b50505050905090810190601f1680156101a85780820380516001836020036101000a031916815260200191505b509250505060405180910390f35b34156101c157600080fd5b6101d760048080359060200190919050506104e3565b604051808273ffffffffffffffffffffffffffffffffffffffff1673ffffffffffffffffffffffffffffffffffffffff16815260200191505060405180910390f35b341561022457600080fd5b61023a6004808035906020019091905050610526565b6040518080602001828103825283818151815260200191508051906020019080838360005b8381101561027a57808201518184015260208101905061025f565b50505050905090810190601f1680156102a75780820380516001836020036101000a031916815260200191505b509250505060405180910390f35b34156102c057600080fd5b6102d660048080359060200190919050506105e2565b604051808273ffffffffffffffffffffffffffffffffffffffff1673ffffffffffffffffffffffffffffffffffffffff16815260200191505060405180910390f35b341561032357600080fd5b61032b610621565b6040518080602001828103825283818151815260200191508051906020019060200280838360005b8381101561036e578082015181840152602081019050610353565b505050509050019250505060405180910390f35b60008160008481548110151561039457fe5b906000526020600020900160006101000a81548173ffffffffffffffffffffffffffffffffffffffff021916908373ffffffffffffffffffffffffffffffffffffffff160217905550836001848154811015156103ed57fe5b9060005260206000209001908051906020019061040b9291906106b5565b509392505050565b61041b610735565b428210151561042957600080fd5b60018281548110151561043857fe5b90600052602060002090018054600181600116156101000203166002900480601f0160208091040260200160405190810160405280929190818152602001828054600181600116156101000203166002900480156104d75780601f106104ac576101008083540402835291602001916104d7565b820191906000526020600020905b8154815290600101906020018083116104ba57829003601f168201915b50505050509050919050565b600080828154811015156104f357fe5b906000526020600020900160009054906101000a900473ffffffffffffffffffffffffffffffffffffffff169050919050565b60018181548110151561053557fe5b90600052602060002090016000915090508054600181600116156101000203166002900480601f0160208091040260200160405190810160405280929190818152602001828054600181600116156101000203166002900480156105da5780601f106105af576101008083540402835291602001916105da565b820191906000526020600020905b8154815290600101906020018083116105bd57829003601f168201915b505050505081565b6000818154811015156105f157fe5b90600052602060002090016000915054906101000a900473ffffffffffffffffffffffffffffffffffffffff1681565b610629610749565b60008054806020026020016040519081016040528092919081815260200182805480156106ab57602002820191906000526020600020905b8160009054906101000a900473ffffffffffffffffffffffffffffffffffffffff1673ffffffffffffffffffffffffffffffffffffffff1681526020019060010190808311610661575b5050505050905090565b828054600181600116156101000203166002900490600052602060002090601f016020900481019282601f106106f657805160ff1916838001178555610724565b82800160010185558215610724579182015b82811115610723578251825591602001919060010190610708565b5b509050610731919061075d565b5090565b602060405190810160405280600081525090565b602060405190810160405280600081525090565b61077f91905b8082111561077b576000816000905550600101610763565b5090565b905600a165627a7a72305820e6b508fdab359d47ee69de9d6274e5e6440a371066b250ebeeb1f64fe434bb4d0029",
  "source": "pragma solidity ^0.4.17;\n\ncontract MessageStore {\n    \n    address[] public recipients;\n    string[] public postBox;\n\n    //allows storage of messages\n    function storeMsg(string mail, uint date, address recipeient) public returns(bool) {\n        //possibly adjust in the future to \n        recipients[date] = recipeient;\n        postBox[date] = mail;\n    }\n\n    function getRecipients() public view returns (address[]) {\n        return recipients;\n    }\n\n    function getRecipient(uint date) public view returns (address) {\n        return recipients[date];\n    }\n\n    function getMsg(uint date) public view returns (string) {\n        require(date < block.timestamp);\n        return postBox[date];\n    }\n}",
  "sourcePath": "/Users/zhen/Code/theMsg/contracts/MessageStore.sol",
  "compiler": {
    "name": "solc",
    "version": "0.4.19+commit.c4cbbb05.Emscripten.clang"
  },
  "schemaVersion": "2.0.0",
  "updatedAt": "2018-03-31T20:09:04.967Z"
}